:100000000A128A11DE2FFF1B0D2883137F18831716
:100010000008840A0319FF0A080000308A00040857
:10002000840A8207003450346F34743420347634B8
:1000300061346C34753465343A34003425346434B6
:0200400000348A
:1006D400080064008001840A040603190034040637
:1006E4006C2B4130831203139F0085308316031350
:1006F4009F000800831203134408B1000C30B200B9
:100704004308B4004208B3000A128A11D3230A1220
:100714008A110800203400340034003400340034DA
:100724000034003400340034003400340034003425
:1007340000340034F71B9F2BA02BA12BAC2B760984
:10074400F8007709F900F80A0319F90A7808F6009D
:100754007908F700080028300A128A1197240A122F
:100764008A110C300A128A1197240A128A11013054
:100774000A128A1197240A128A1108007E088A0034
:100784007F0882000A128A11C0230A128A1180008B
:10079400840A04087D0603190034FF0A0319FE0ABB
:1007A400C42B333083120313B6003108B700003072
:1007B400B800B901BA01C001C1013730AD00003041
:1007C400AE003208AF003630B0000A128A11F623A8
:1007D4000A128A118312031339083107B500350848
:1007E4008400831380010800831203132F08FD0083
:1007F4000A2C831203132D08A0002E08A1007D30BB
:10080400A2003008A3000A128A11F8260A128A11DB
:100814007D0884000A128A110D200A128A11003AF6
:10082400031D152C162CFB2B83120313AD01AE01F3
:100834000800F701F80173037404031D222C232C10
:10084400282C8030F7000030F800332C0230730677
:100854007404031D2E2C2F2C332CC030F7000030D1
:10086400F80075087707F70076080318760A780702
:10087400F80077080A128A1197240A128A110800CC
:10088400F501572C75087307840074080318740A5B
:10089400FF000A128A1103200A128A110A128A110D
:1008A400C8240A128A110130F507750873078400F9
:1008B40074080318740A83120313FF000A128A11BE
:1008C40003200A128A11003A031D692C6A2C442C55
:1008D4000800CF3084004B3083120313C70010305C
:1008E400C80083130008C900040ACA00470884002A
:1008F40049088000040AC7004A088400C80B732C06
:100904004608C3004508C2004B30C4000A128A11CD
:100914007C230A128A114B30F3000030F4000A12CF
:100924008A1142240A128A110800F2007208F0396E
:100934008312031386000610861006150D30F1008D
:10094400FB30F000F00BA42CF10BA42CA92C831287
:10095400031306117208F00003300310F00DFF3E7C
:10096400031DAF2C0310700DF0398600061086109D
:1009740006150D30F100FB30F000F00BBF2CF10B2D
:10098400BF2CC42C8312031306110800F200720852
:10099400F0398312031386000614861006150D30F1
:1009A400F100FB30F000F00BD52CF10BD52CDA2C38
:1009B4008312031306117208F00003300310F00DC4
:1009C400FF3E031DE02C0310700DF0398600061461
:1009D400861006150D30F100FB30F000F00BF02C02
:1009E400F10BF02CF52C8312031306110800700888
:1009F4007104031DFE2CFF2C052D831203139F117C
:100A04001F129F12102D70037104031D0A2D0B2D4C
:100A1400102D831203139F151F129F1283120313A9
:100A24001F150C1F162D172D132D1E08F200F30190
:100A34007208F300F2017208EB007308EC008316ED
:100A440003131E08831203136B07F2006C080318C8
:100A54006C0AF3007208EB007308EC000C136C08CA
:100A6400F1006B08F0000800F501F31F3A2D3B2D4F
:100A7400422DF209F309F20A0319F30A0130F500D1
:100A8400F11F452D462D4B2DF009F109F00A0319EC
:100A9400F10A700871040319502D512D7E2D013077
:100AA400F4005D2D01300310F00DF10DFF3E031D28
:100AB400552D0130F407F11F602D612D542D71085F
:100AC4007302031D672D70087202031C6A2D6B2DBF
:100AD400712D7008F2027108031CF303F302013054
:100AE4000310F10CF00CFF3E031D722D0130F402D3
:100AF400031D7D2D7E2D612D75080319822D832DF7
:100B0400882DF209F309F20A0319F30A7308F100B4
:100B14007208F0000800F501F11F912D922D992D16
:100B2400F009F109F00A0319F10A0130F500F31F85
:100B34009C2D9D2DA42DF209F309F20A0319F30A41
:100B44000130F506F601F701700871040319AB2DA5
:100B5400AC2DE12D0130F400B82D01300310F00D5F
:100B6400F10DFF3E031DB02D0130F407F11FBB2D25
:100B7400BC2DAF2D01300310F60DF70DFF3E031D04
:100B8400BD2D71087302031DC92D70087202031C68
:100B9400CC2DCD2DD42D7008F2027108031CF30363
:100BA400F302761401300310F10CF00CFF3E031D28
:100BB400D52D0130F402031DE02DE12DBC2D750867
:100BC4000319E52DE62DEB2DF609F709F60A0319AD
:100BD400F70A7708F1007608F0000800831603137B
:100BE40086010A128A11AD230A128A110A128A1185
:100BF40073230A128A110030F000F1000A128A11DC
:100C0400F9240A128A11710883120313EE00700882
:100C1400ED000130F3000030F4000030F500F60080
:100C24000A128A111B240A128A110130F30080303F
:100C3400F4000A128A1142240A128A11831203133D
:100C44006E08C6006D08C5000A128A116B240A12C8
:100C54008A110130F0000030F1000A128A11F924DF
:100C64000A128A11710883120313EE007008ED0052
:100C74000230F3000030F4000030F500F6000A12F0
:100C84008A111B240A128A110130F3008030F40007
:100C94000A128A1142240A128A11831203136E085B
:100CA400C6006D08C5000A128A116B240A128A1143
:100CB400FD2D0A128A110028720873040319632E89
:100CC400642E6A2E72087304031D692E6A2E712E17
:100CD40070080A128A116A230A128A11F72E7208FE
:100CE400093EF40073080318013E003EF500740841
:100CF40084008317751C83130008F600840A000817
:100D0400F700760877040319882E892EBB2E720803
:100D1400093EF40073080318013E003EF500740810
:100D240084008317751C83130008F600840A0008E6
:100D3400F7007208023EF80073080318013E003EF3
:100D4400F900780884008317791C83130008FA00DB
:100D5400840A0008FB007B08803AFC007708803A8C
:100D64007C02031DB72E76087A020318BA2EBB2E16
:100D7400F72E720884008317731C83130008F40091
:100D8400840A0008F5007208023EF600730803188E
:100D9400013E003EF700760884008317771C831316
:100DA40000087407F9007508F8000318F80A801F92
:100DB400DC2EF8037808FA007908840083177A1C7B
:100DC4008313700880007208023EF400730803184D
:100DD400013E003EF500740884008317751C8313DC
:100DE40001308007840A0318800A08008312031361
:100DF40022088400000884000A128A110D200A12B5
:100E04008A11253A031D072F082FC42F22088400B6
:100E140001308007DB01DC010030EF00FF30DD0032
:100E2400FF30DE00220884000008A70027088400A1
:100E34000A128A110D200A128A11643A0319232F07
:100E4400242F302F270884000A128A110D200A1239
:100E54008A11693A031D2F2F302FBD2F23088400D8
:100E640083130008FF00023080077F088400000815
:100E7400A800840A0008A900220884002708013E6B
:100E840080002030AC00A91B482F4A2F01304B2F83
:100E94000030A6000130AC022C08A03E84000A30C9
:100EA400F0000030F1002908F3002808F2000A12CB
:100EB4008A1136250A128A117108F7007008F600A3
:100EC4000A128A119C230A128A117608303E83136F
:100ED40080000A30F0000030F10083120313290867
:100EE400F3002808F2000A128A118D250A128A11C9
:100EF400710883120313A9007008A80028082904A4
:100F04000319852F862F8B2F2C08031D8A2F8B2FD7
:100F14004C2F2C0803198F2F902FB62F2608031956
:100F2400942F952FB62F0130AC022C08A03E8400DC
:100F34002D3083138000B62F2C08A03E8400831329
:100F44000008A400A5012408F0002508F1002008E9
:100F5400F2002108F3000A128A115E260A128A118D
:100F6400013083120313AC0720302C06031DBB2F62
:100F7400BC2F9E2FDD2F831203132208840001301F
:100F84008007DD2F22088400000884000A128A11D9
:100F94000D200A128A11A400A5012408F0002508D6
:100FA400F1002008F2002108F3000A128A115E26DB
:100FB4000A128A11BD2F08008313DF30FD000330AD
:100FC400FE008C30FF00CF3084000A128A11C42343
:100FD4000A128A11A0308400CF300A128A116B23BE
:100FE4000A128A115B30840070300A128A116B2352
:0C0FF4000A128A1183010A128A11F02DE2
:02400E003A3F37
:00000001FF
